:1000000000EE00F02B0EEE6AE806FDE104EE00F0D3
:1000100011EE08F024EC00F005EE20F0080EEE6A78
:10002000E806FDE10501326B316B306B0501726B47
:10003000716B706B0FEE70F00F0EEE6AE806FDE16B
:10004000000EF86E6CEF0AF0EE6AE550E150FCE14C
:06005000E250FAE112008B
:100400000034034D006900630072006F00630068F0
:100410000069007000200054006500630068006EF1
:10042000006F006C006F0067007900200049006ECB
:100430000063002E002A034D004900430052004F84
:100440000045004D004200450044004500440020A6
:1004500000550053004200200049004F00200009D1
:10046000022900010100C03209040000020300005B
:1004700000092111010001221D0007058103400030
:1004800001070501034000010600FF0901A1011950
:10049000012940150026FF007508954081001901CB
:1004A00029409100C01201000200000008D8044257
:1004B0000002000102000104030904B701355F00D6
:1004C0001F0E1E6442D16DB240D120C0E9FF21C091
:1004D000EAFFEF34E836010B2B6E2C6A2150201016
:1004E00002E12B6A2C6A2C502B1001E10ED12DD188
:1004F000936A956A81C481FF82C483FF81C4C1F479
:1005000082C4C2F4800EC06F1BC0E9FF1CC0EAFFAA
:10051000EF34E836010B2D6E2E6A1C501B1002E1E1
:100520002D6A2E6A2E502D10400E01E000D17BEC7A
:1005300009F086EC07F0E4D09368956881CFC1F4A8
:1005400083CFC2F4810EC06F1BC0E9FF1CC0EAFF5D
:10055000EF34E836010B2F6E306A1C501B1002E19D
:100560002F6A306A30502F10400E01E0E0D07BEC53
:1005700009F086EC07F0C4D0936A956881C481FFC6
:1005800081C4C1F483CFC2F4820EC06F1BC0E9FFE7
:100590001CC0EAFFEF34E836010B316E326A1C50A2
:1005A0001B1002E1316A326A32503110400E01E014
:1005B000BED07BEC09F086EC07F0A2D09368956A78
:1005C00082C483FF81CFC1F482C4C2F4830EC06FA2
:1005D0001BC0E9FF1CC0EAFFEF34E836010B336EA5
:1005E000346A1C501B1002E1336A346A34503310F1
:1005F000400E01E09CD07BEC09F086EC07F080D047
:10060000010EC26E090EC16E8D0EC06E93689568A4
:10061000C28281CFC1F483CFC2F475EC09F0FDE052
:100620000FEC0AF0C3CFC4F4C4CFC3F4050EC26EFE
:10063000090EC16E8D0EC06EC28275EC09F0FDE030
:100640000FEC0AF0C3CFC6F4C4CFC5F4090EC26ED6
:10065000C16E8D0EC06EC28275EC09F0FDE00FEC2C
:100660000AF0C3CFC8F4C4CFC7F40D0EC26E090E92
:10067000C16E8D0EC06EC28275EC09F0FDE00FEC0C
:100680000AF0C3CFCAF4C4CFC9F4110EC26E090E6A
:10069000C16E8D0EC06EC28275EC09F0FDE00FECEC
:1006A0000AF0C3CFCCF4C4CFCBF4150EC26E090E42
:1006B000C16E8D0EC06EC28275EC09F0FDE00FECCC
:1006C0000AF0C3CFCEF4C4CFCDF40401CF69D06912
:1006D000840EC06F1BC0E9FF1CC0EAFFEF34E83690
:1006E000010B356E366A1C501B1002E1356A366A02
:1006F00036503510400E1BE17BEC09F086EC07F01C
:1007000038C01BF039C01CF011D004018051800AA0
:1007100001E1EED6010A01E10FD7030A01E12CD76E
:10072000010A01E14BD7070A01E16AD7400E3B6E8F
:100730000401800E396E040E3A6E386A010E86ECA2
:1007400007F038C020F039C021F012006D9803BEC8
:100750003CD009AE1DD0020E266E0F28E96E000EA9
:100760001020EA6EEF6A0FC0E9FF10C0EAFFC80E62
:10077000EF6E1328E96E000E1420EA6E080EEF6E7D
:10078000020E1324E96E000E1420EA6E050190D0CB
:100790001328E96E000E1420EA6E080EEF6E020EAA
:1007A0001324E96E000E1420EA6E0501EE6A050EB0
:1007B000ED6E13C0E9FF14C0EAFF8C0EEF6E0FC0A0
:1007C000E9FF10C0EAFF840E7CD009BE7BD0050192
:1007D00000AF53D000EE04F015EE06F0E652EE52F4
:1007E000ED50E55C02E1EF50E75C04E206C504F081
:1007F00007C505F059EC05F0010E266E1324E96ECD
:10080000000E1420EA6E080EEF6E020E1324E96E3D
:10081000000E1420EA6E0501EE6A050EED6E13C09F
:10082000E9FF14C0EAFF800EEF6E286A1528E96E12
:10083000000E1620EA6E080EEF6E020E1524E96E09
:10084000000E1620EA6EEE6A050EED6E15C0E9FF89
:1008500016C0EAFF840EEF6E010E286E020E0F2402
:10086000E96E000E1020EA6E200EEE6E050EED6EA3
:100870000FC0E9FF10C0EAFF23D0020E266E0F283A
:10088000E96E000E1020EA6EEF6A0FC0E9FF10C09B
:10089000EAFFC80EEF6E1328E96E000E1420EA6E10
:1008A000080EEF6E020E1324E96E000E1420EA6E9D
:1008B000200EEE6E050EED6E13C0E9FF14C0EAFFC8
:1008C000C80EEF6E12001E660ED06D6A696A160EB3
:1008D0006F6E9F0E6B6E7B0E696E6DB602D06D866D
:1008E000FCD7010E1E6E1E04D8B46DBA06D0686A1D
:1008F000696A69806988020E1E6E68B469A403D0B3
:10090000689451EC0AF06DB257D068B069A00ED06F
:1009100082EC08F0040E1E6E0401026B050E036FDC
:10092000080E016F006B8C0E0013689068B869A800
:1009300003D061EC0AF0689868BC69AC0BD0010E7A
:10094000336E346A326A730E306E000E316ABBEC5D
:1009500008F0689C68BA69AA02D0F6EC09F068B29F
:1009600069A20AD0010E336E346A326A30687F0E93
:10097000316EBBEC08F06A6A040E1E6001D01CD018
:1009800069A61AD02B6A68A617D06CCF1DF068969E
:100990001D50780B03E123EC06F00AD0336A346A69
:1009A0001D0E326E720E306E000E316ABBEC08F016
:1009B0002B2A030E2B64E7D7A19A12001528E96EA3
:1009C000000E1620EA6EEF50D96ED9500A5C000E68
:1009D0000B5803E20AC0D9FF07D0D9500A5C0A6E4F
:1009E0000B50D8A00B040B6EF36AD950F35C0EE2E7
:1009F000200EF324E96EEA6A050EEA220650E16E43
:100A0000E26AEFCFE7FF062AF32AEFD70B500A106E
:100A100023E01328E96E000E1420EA6E080EEF6E34
:100A2000020E1324E96E000E1420EA6E0501200E5A
:100A3000EE6E050EED6E15C0E9FF16C0EAFFEF5031
:100A40002E6E13C0E9FF14C0EAFF2EBC03D0C80EFF
:100A5000EF6E2ED0880EFCD71328E96E000E1420FE
:100A6000EA6E080EEF6E020E1324E96E000E1420DB
:100A7000EA6E0501EE6A050EED6E13C0E9FF14C0C3
:100A8000EAFF840EEF6E00EE0CF0EE50EE10ED106B
:100A90000EE000EE0CF001D80AD00500FA6EEE5020
:100AA000FD6EEE50FE6EEE50FF6EFA501200099E83
:100AB0001200080E045C000E05580DE204C0F3FF9E
:100AC00005C0F4FF256603D0010E256E07D025046E
:100AD00005E1020EFAD7080EF36EF46A0FC0E9FFC3
:100AE00010C0EAFFFD0EEF160FC0E9FF10C0EAFFCD
:100AF000FE0EEF160FC0E9FF10C0EAFFF450EF1230
:100B00000F28E96E000E1020EA6EF3CFEFFFF350CE
:100B1000045C046EF4500558056E0501200E226E2B
:100B2000050E236E03A012D026D06AEC09F0F764FC
:100B300003D00800F55002D064EC09F0E76E004ADB
:100B4000012A224A232AF306D8A0F406F450F3100F
:100B500015E0EBD76AEC09F0F76403D00800F55014
:100B600002D064EC09F0E76E004A012A224A232AE7
:100B7000F306D8A0F406F450F310ECE11200005193
:100B8000800A60E1C00E036E55D0A50E006E040E03
:100B9000016E120E046E000E056A54D00251BE0F93
:100BA000306E30C0F6FF040EF76E0800F5CF31F05E
:100BB00031C000F0016E020E0024306E000E0120E4
:100BC000316E30C0F6FF31C0F7FFF86A030EF764EC
:100BD00007D00900F5CF04F00900F5CF05F008D0E3
:100BE000F6CFE9FFF7CFEAFFEECF04F0EECF05F046
:100BF00029D0030E026125D00251BB0F306E30C0E8
:100C0000F6FF040EF76E0800F5CF31F031C000F0AA
:100C1000016E0050F66EE96E030EEA6E0150EA6452
:100C200003D0EA6EEF5003D0F76E0800F550046E63
:100C3000056A08D00351010AA8E0030AAFE0010ADF
:100C4000D8E0036A12001D50FD0B51E11DC02CF0CD
:100C50007E0E2C16D8902C30040D0401000EF324C7
:100C6000156E166A040E162215C013F016C014F085
:100C7000131A15C0E9FF16C0EAFFEF30E8320F0B78
:100C80000D0A32E1200E2C6E050E2D6E020E15247B
:100C9000E96E000E1620EA6EEE522D50ED182CC0B3
:100CA000E8FFD8B4EF181DE1020E1524E96E000E1E
:100CB0001620EA6E0501EE6A050EED6ED96A200E69
:100CC000D924E96EEA6A050EEA22000ED924E16E03
:100CD000E26A050EE222EFCFE7FFD92A070ED964B8
:100CE000EED784EC09F009D040EC09F006D01D5095
:100CF000FD0B040AD8B406EC08F0120005010051FF
:100D00001F0B376E370454E1045152E10151060ABA
:100D100017E01DD01F041BE1710E006E040E016E62
:100D2000090E07D01F0413E1880E006E040E016E39
:100D30001D0E046E056AC00E01D0800E036E07D032
:100D40000351210AE7E0030AEDE0010AF6E005019C
:100D50000039E832030B376E37042AE11CD028D063
:100D6000270E006E016A010E046E056AC10E0CD0DA
:100D7000800E036E03C527F01BD02A0E006E016A99
:100D8000010E046E056A810E036E12D0800E036E92
:100D900002C52AF00DD00151010AE1E0030AE0E0AA
:100DA000010AEBE00A0ADBE0030AE2E0010AEEE0F6
:100DB000120002050CE1050100511F0B08E1038E32
:100DC0000151030A03E1010E296E01D0296A02676D
:100DD00049D0050100511F0B020A44E104510F0BD9
:100DE00041E0038E04BF06D004510F0B020DF350F7
:100DF000170F06D0050104510F0B020DF3500F0F12
:100E0000E96EEA6AEECF30F0EDCF31F030C0E1FFAD
:100E100031C0E2FF0151030A02E1840E22D0050134
:100E200004510F0B306E700E316E0F0E326E30505B
:100E30003126E86A30BEE868322231C0D9FF32C0BC
:100E4000DAFFFE0EDE16FF0EDD1604AF05D0E76AF0
:100E5000040EE11A400E05D0880EE76E040EE11A6A
:100E6000C80EE76E120005010039E832030B4DE1B0
:100E700036D0038E080E1E6E48D0BFEC05F045D06C
:100E8000F0EC08F042D01F0E006E016A10D0C6ECE4
:100E900007F03BD0D9EC06F038D00451240F2F6E68
:100EA0002FC000F00F0E016E5F0E0064016A038018
:100EB000010E046E038E29D0038E05010451240F08
:100EC000E96EEA6A02C5EFFF20D0336A346A326AFB
:100ED000020E306E000E316ABBEC08F016D00151E4
:100EE000D6E0010AD7E0020AD5E0060AC2E0030A0A
:100EF000C4E0010AEAE00F0AC6E0010AC1E0030A01
:100F0000CCE0010AD9E0070AE9E01200E8CFD9FFF6
:100F1000385005E0D950020DF3500F0F04D0D950CE
:100F2000020DF350170FE96EEA6AEECF3CF0EDCFF9
:100F30003DF03CC0E1FF3DC0E2FF020EE124E96E5E
:100F4000000EE220EA6E39C0EEFF3AC0EDFFE12864
:100F5000E96E000EE220EA6E3BC0EFFF400EE7169E
:100F6000880EE712385005E0D950020DF3500F0FEC
:100F700004D0D950020DF350170FE96EEA6A040E3F
:100F8000EF1AE1CF38F0E2CF39F0040C206B216B7F
:100F90002AD0038E0501208129042DE120832BD046
:100FA000038E29D0038E050104BF06D004510F0B18
:100FB000020DF350170F06D0050104510F0B020D5F
:100FC000F3500F0FE96EEA6AEECF30F0EDCF31F05B
:100FD00030C0E1FF31C0E2FFE750306E30A40BD0EB
:100FE000010E206F08D0050100511F0BD2E0010A4D
:100FF000D7E0030AD7E003AE08D00501200E006E4B
:10100000050E016E0380020E046E12000FC0E9FF90
:1010100010C0EAFFEF38E832E832010BD96E040E57
:101020000F1A1E50080A08E102C56EFF6E5002E05A
:10103000100E01D0040E1E6E260425E1020E0F24B0
:10104000E96E000E1020EA6E0501200EEE6E050E10
:10105000ED6E59EC05F02550020A06E10FC0E9FFDC
:1010600010C0EAFF840E07D0D96607D00FC0E9FF91
:1010700010C0EAFFC80EEF6E08D00FC0E9FF10C025
:10108000EAFF880EF8D71BEC09F01200E8CFD9FF71
:101090000401E16A040EE26E3B50020DF3CF3CF016
:1010A000D950040DF3503C243D6ED8903D36D89075
:1010B0003D34E96ED890E932D890E932E950040D18
:1010C000F350E126000EE2227F0EE7163B6605D0C4
:1010D000D950020DF350170F04D0D950020DF35020
:1010E0000F0FE96EEA6AE1CFEEFFE2CFEDFFBF0E30
:1010F000E716040EE124E96E000EE220EA6E400ECF
:10110000EF12400C6A6A686A160E6F6E9F0E6B6E65
:101110007B0E696E6D8C6E6A346A356A326A336A28
:10112000710E306E0F0E316E3CEC0AF06D9CD96A78
:10113000D950040D000EF324E96EEA6A040EEA2287
:10114000EE6AEE6AEE6AED6AD92A070ED964F0D724
:10115000160E706E68A602D06896FCD7036A096AFC
:101160000A6A0B6A6D980401080E0F6E040E106E69
:101170001F6A1E6A120017D027EC0AF030D079ECF3
:101180000AF02DD073EC0AF02AD078EC0AF027D0C0
:1011900077EC0AF024D075EC0AF021D076EC0AF056
:1011A0001ED000F01CD030C035F031C036F013D066
:1011B0003550010AE1E0030AE2E0010AE3E0710AC6
:1011C000F0E0010AE2E0070AE6E0010AE1E007D008
:1011D000351CE4E004D03650EBE07F0AF9E0120061
:1011E000038E346A356A326A336A710E306E0F0EBE
:1011F000316E3CEC0AF0010E346E356A326A336AA5
:10120000240E306E000E316A3CEC0AF002C51FF06D
:101210001F6603D0100E1E6E0DD0200E1E6E010E26
:10122000336E346A1F0E326E010E306E000E316A5C
:10123000BBEC08F01200266A0FC0E9FF10C0EAFFFD
:10124000EF6A040E0F18E16E1050E26E000EE76AAE
:1012500009AE15D000EE0CF0EE50EE10ED100EE0E1
:1012600000EE0CF001D80AD00500FA6EEE50FD6ECB
:10127000EE50FE6EEE50FF6EFA501200099E120004
:101280002650020A03E1DEEC04F01DD01BEC09F04D
:10129000286618D01328E96E000E1420EA6E080E96
:1012A000EF6E020E1324E96E000E1420EA6E0501A3
:1012B000EE6A050EED6E13C0E9FF14C0EAFF8C0E56
:1012C000EF6E01D0286A1200F6CFE9FFF7CFEAFFF0
:1012D000EF50120000C0F6FF01C0F7FFF86A22C00D
:1012E000E1FF23C0E2FF030E1200C2CF37F0020E6F
:1012F0003716370412003B6E0401C00E396E040E1F
:101300003A6E010E386E12000FC0E9FF10C0EAFFFE
:10131000EF502E6E2EAE06D00FC0E9FF10C0EAFFD0
:10132000000EEF6A256A266A046A056A036A33ECCE
:1013300007F0336A346A326A030E306E000E316A87
:10134000BBEC08F0A6EF03F0E8CF38F0700E396E72
:101350000F0E3A6E38503926000E3A2239C0E1FF9E
:101360003AC0E2FF37C0E7FF37A404D03B6A3850E9
:1013700046EC08F037A205D0010E3B6E385046EC23
:1013800008F01200E8CFF3FFE16A3E5014E0010ECE
:10139000E96ED8903EBE04D03E36E92AFAD7D890FE
:1013A000E1363E50F35C03E33E50F35EE180D890BB
:1013B0003E32E92EF4D7E15012000F0EC16E926852
:1013C000936A946A956A010E966E816A826A836A4C
:1013D000846A010EC26E090EC16E900EC06E8280CC
:1013E000206A216A1B6A1C6A82EF08F070A015D07F
:1013F000800E15C0E9FF16C0EAFFEF620DD0840E23
:101400000FC0E9FF10C0EAFFEF6206D015C0E9FF88
:1014100016C0EAFF8C0EEF6E7090689A1200F36AA5
:10142000F46A386A396A384A392A3950800A800F92
:10143000330ED8B4385CF7E3F34AF42AF450800A48
:101440007F0F2D0ED8B4F35CD8B01200EAD71E0E71
:10145000376E010EA4EC09F0400E3B6E0401800EC5
:10146000396E040E3A6E386A010E86EC07F038C009
:1014700020F039C021F0120030C0F3FF31C0F4FF7A
:101480003406D8A035063428D8B4352809E0F3CF7F
:10149000E9FFF4CFEAFF32C0EFFFF34AF42AF0D7B6
:1014A0001200336A346A326A740E306E000E316A8A
:1014B000BBEC08F06D92699468A402D06894FCD7E4
:1014C0001200698468986D82336A346A326A750ED4
:1014D000306E316AD3EF08F0DDEC09F063EC04F014
:1014E00060EC02F0FBD77EEF06F012001200120053
:0414F00012001200D4
:020000040030CA
:0E000000E43EFFFEFFF19BFFFFFFFFFFFFFF4F
:00000001FF
