:020000040000FA
:06000000F4EF14F0120001
:0600080004EF08F01200F5
:060018000CEF08F01200DD
:06100000F4EF14F01200F1
:021006001200D6
:06100800A9EF0EF012003A
:02100E000000E0
:051010000000010000DA
:06101800F4EF0EF01200DF
:02101E000100CF
:0C1020000E100000980000000700000007
:04102C0074EC0EF062
:10103000A0940F015F6B626A536BBDEC0DF0F3EC93
:101040000DF0DF6AFBEC0DF003E2A3EC0DF0FAD734
:10105000648C0F015C6B6498649C62A607D06296F6
:101060000001736B786B796B7A6BF7D70001010E17
:101070008A6F8B6F8C6B8D6B806BDF6A020EDF5C0F
:1010800011E2EA6ADF3477EC0EF0EA22EE6AED6AEA
:10109000EA6ADF347EEC0EF0EA22EE6AED6AB3EC27
:1010A0000DF0ECD70001080E6B6F020E6C6F0F0194
:1010B000160E536F0201200E026F020E036F080E10
:1010C000016F840E006F0001616B606BE5527DEF74
:1010D0000DF074EC0EF00001600507E164BA05D074
:1010E000626A60806088020E606F6250040B05E0E7
:1010F0006050040B02E0629441DB64B246D062505F
:10110000010B09E06050010B06E090DFA0840001B4
:10111000040E606F62906250100B05E06050100B7F
:1011200002E022DB629862AC0FD060AC05D013EC19
:101130000EF0730E6AEC0DF0629C0001885101E024
:101140008807885101E10AD96250200B04E0605001
:10115000200B01E0F8DA6250020B0CE06050020B49
:1011600009E013EC0EF0E6687F0EE66E85EC0EF0FB
:101170000F015F6B040E0001E76E6019E8AE02D04C
:10118000E73402D0E750605D02E2A1942ED060A661
:101190002BD0DF6A040EDF5C27E262A625D063CF86
:1011A00081F000018151780BE842E842E842826F09
:1011B000629681B504D082518CEC0EF003D082513E
:1011C00091EC0EF0EA22EF70825102E1E3DA0AD0EC
:1011D000000EE66EE66A810EE66E000EE66E720E98
:1011E0006AEC0DF0DF2AD6D7A194E5527DEF0DF021
:1011F00046EC0EF0FD0EDBA403D0E66A03EC0EF025
:10120000FD0EDBA204D0010EE66E03EC0EF0FE0E26
:10121000DB50156A530F146E0F0EEDEC0DF06EECF3
:101220000DF0FD0EDBCFEFFF020EE15C02E2E16AA2
:10123000E552E16E7DEF0DF046EC0EF0FD0EDB5059
:1012400003E065EC0DF002D094EC0DF0D9EC0DF05C
:10125000D9CFE9FFDACFEAFFEE50ED1003E1F36AF0
:10126000F46A28D06EEC0DF0A0EC0EF0FB0EDBCF94
:10127000EEFFFC0EDBCFEDFF6EEC0DF0EE52FA0E42
:10128000DBCFEFFF400E96EC0EF0880EA5EC0EF0D3
:10129000FD0EDB5003E065EC0DF002D094EC0DF098
:1012A000EA22EF74DECF14F0DDCF15F014C0F3FFA7
:1012B00015C0F4FF020EE15C02E2E16AE552E16E64
:1012C0007DEF0DF046EC0EF0FE0EDB5003E154EC2A
:1012D0000EF009D099EC0DF034EC0EF099EC0DF015
:1012E000010F34EC0EF0020EE15C02E2E16AE5521D
:1012F000E16E7DEF0DF078EC0DF064A816D065EC92
:101300000EF0400EEE16EE6AEE6AEE6A65EC0EF036
:10131000EE7CDBDBEA22EF74400E146E65EC0EF01F
:101320001450EF1665EC0EF0EF7CE7D3646A606A48
:101330000001606B1200000160510FE1646A606A95
:10134000F3EC0DF0D08EA284A084F28E64B602D0AD
:101350006486FCD70001010E606F120000018A5103
:1013600022E1010E8A6F8B511EE1010E8B6F020E7E
:10137000705D07E1B8DBEE52EF6AB5DBC80EEF6EC9
:101380001200700510E1836BC4DBEE52080EEF6EA5
:10139000C0DB40EC0EF0BDDB840EEF6E010E836F00
:1013A00090DB800EEF6E120000018C6B8D6B020ED5
:1013B000705D06E19AEC0EF0B1DB2FEC0EF010D070
:1013C00074510201265D000175510201275904E2A2
:1013D00026C274F027C275F061D885DB9FDB83DB02
:1013E000C80EEF6E120046EC0EF0000EDE6E020E1E
:1013F000DD6E9FDB040DF4CF15F0D9CFE9FFDACF16
:10140000EAFFF350EE261550ED2268DBEF9EFD0E4D
:10141000DB5002E189DB01D058DBEA22DECFEEFFB0
:10142000DDCFEDFF5BDBEF9C59DB040EE926000E00
:10143000EA22EF8C020EE15C02E2E16AE552E16E23
:101440005CD36498000173BF0DD078AF09D0020E51
:10145000706F8D5101E1A8DF00018B6B8A6B120068
:1014600054EF0EF0020120AF0DD00001010E706F9D
:101470008C5101E199DF00018B6B8A6B89510DE181
:10148000AEEF09F00001020E706F1BDB840EEF6EF1
:101490008B6B8A6B895101E161DF120074EC0EF0F5
:1014A000080EDF6E0001745D000E75590AE274C00B
:1014B000DFFF6F5102E1010E03D06F0502E1020E62
:1014C0006F6FDF50156AE850745D746F1550755971
:1014D000756F09DBEE52DFCFEFFF280E7D6F020E36
:1014E0007E6F73B10DD0DF5017E071C0F6FF72C090
:1014F000F7FF712B000E72230800F5504DDBF3D778
:10150000DF500AE071C0E9FF72C0EAFF712B000EE4
:101510007223EF5041DBF4D7E552EFD2B7DBF9DAB3
:10152000EE52EFCFDFFFDFCF14F014500001795DF2
:10153000000E7A5902E279C0DFFFDF50146E156A9F
:10154000E850795D796F15507A597A6F010EDB6A30
:10155000DF50F36E010EDBCFF4FFF350F45C16E2C4
:10156000010EDB50EA6A280FE96E020EEA22EF5004
:10157000E66E76C0E9FF77C0EAFF762B000E772390
:10158000E552E750EF6E010EDB2AE2D7000ED8805D
:101590007955000E7A550DE2CDDBC0DABADAEF509C
:1015A000400B03E15CDBC80E02D059DB880EEF6E06
:1015B00012D087DA840EEF6E7B517C1107E005D0E4
:1015C0007CC0FAFF00017B51F96EFADF0001789FC1
:1015D000895101E1C3DE020EE15C02E2E16AE552FB
:1015E000E16E8BD281DB0001738FC7DADF6A03DB28
:1015F00002E2A9DAFCD7648CDF6A020EDF5C02E249
:10160000B2DAFBD7010EE66EE66AE66A620EE66EB5
:10161000000E62DB649C0001080E6B6F020E6C6FA3
:10162000000E636F020E646F63C065F0666F22C2C6
:1016300061F0615102E1100E0BD0010EE66EE66A18
:10164000610EE66E000EE66E010E44DA0001200E19
:10165000606FE55252D2800E0201205D38E1000138
:10166000C00E736F02012351030A1AE0010A09E058
:10167000030A2BE10001D20E716F270E726F120E5A
:101680001ED0DFDA790EF626280EC5DA020E00012A
:10169000D1DAF5CF74F0030ECDDAF5CF75F0120084
:1016A000030E225D0FE2CDDA7B0EF626280EB3DAAA
:1016B00071C0F6FF72C0F7FF0800F5500001746FAB
:1016C000756B12000001736B12000001736B120046
:1016D000DDDA0201286B296B20511F0B020A11E091
:1016E000030A0CE0010A1EE10001738F0201288148
:1016F00000017F0517E10201288314D00001738FD8
:1017000011D00001738F020124BF02D0D4DA01D0BE
:10171000D7DA4FDADDDA06E0E1D9EF50040B02E068
:10172000010E286F000173AF07D0280E716F020EF3
:10173000726F7381020E746F020EE15C02E2E16A65
:10174000E552E16EDAD10F0153A10CD0E2D9EF508E
:10175000800807E1C8D9EF50840803E1DAD98C0E7C
:10176000EF6E5391629A1200608462986482000165
:10177000010E806F24DA750E6AEF0DF00001806BA8
:101780001EDA740EA7D96492609462A402D06294A7
:10179000FCD71200A9DA00012D0E886FFD0E81150D
:1017A00039E17E0E8115E8407F0B040DF3CF63F025
:1017B000F4CF64F0000E6327020E642363C065F06B
:1017C00064C066F06575A5D9EF503C0BE842E8426D
:1017D0000D081EE1DF6A080EDF5C16E29AD9020EE0
:1017E000E926000ED3D9EF50E66EDF50EA6A200FEB
:1017F000E96E020EEA22E552E750EF6E8AD9A0DACE
:10180000EE2AEF22DF2AE7D784D93ADA0AD807D0BE
:1018100023D805D0FD0E8115040801E12CD8E5522E
:101820006CD100016F6B896B8C6B8D6B836B706BF4
:101830005AD9EF9E6B7557D9EF9E6B7510DAEF9EF4
:10184000736B746B756B786B796B7A6B51D8B7D996
:10185000030E40D921EF0AF0020E0001705D02E193
:101860008EEF0AF0706B835104E12BD98C0EEF6E72
:101870001200836B120038DA36D9EF50400B01E0CA
:10188000010EDF6E00016B75080E605D0BE122C278
:101890005CFF0F015C5103E00001100E02D000015B
:1018A000040E606F700513E11ED938D9F7DD020E02
:1018B00000016F5D03E117D9840E07D0DF5003E10B
:1018C00012D9C80E02D00FD9880EEF6E0FD078AFA4
:1018D0000CD07B517C1107E005D07CC0FAFF0001E1
:1018E0007B51F96EFADF0001789F706BE55205D1EC
:1018F00002012051600BE842E842E842E842E84237
:10190000000901E0120021510C0A45E00B0A3FE0FA
:101910000C0A31E0010A22E00B0A1EE0020A1CE078
:10192000030A18E0080A10E0010A0CE00F0A08E0B8
:10193000030A01E012000001738F080E606F1200AD
:101940002BEF0BF0F2EF0AF00001610E716F000E49
:10195000726F0CD068EF0BF0CCEF0CF0245100014B
:10196000716F726B620E7127000E72237381010E0C
:10197000746F738F12000001738F02012451EA6AA1
:10198000620FE96E000EEA2222C2EFFF120017D9A1
:10199000020E6AEF0DF01200ABD8050EE12602012F
:1019A000220510E120511F0B00090CE10001738F8B
:1019B000030E0201215D04E10001010E7F6F02D0E0
:1019C00000017F6B0201225101E074D020511F0BF6
:1019D000020870E124510F0B00096CE024510F0B39
:1019E000010868E3200E0001605D64E1738F02016D
:1019F00024BF04D060D9DDD8E8D803D061D9D9D8C4
:101A0000E8D8EA22020EEFCFDBFF22D9010B03E177
:101A1000000EDF9401D0DF8424BF02D04CD901D066
:101A20004FD9EA22DECFEEFFDDCFEDFF030E215DC1
:101A30000CE14ED907E024BF02D0C7D801D0C9D8E5
:101A4000EA22EF82840E81D935D0DF7441D906E0D5
:101A500045D8EF9E43D8EF8C1DD902D03FD8EF8CEC
:101A6000DF74F6D8020B02E133D90DE0020124BF86
:101A700002D0ABD801D0ADD8EA22EF923B0E146E63
:101A800055D908D902D03B0E51D9020124510F0B70
:101A9000156A530F146E0F0E1522030E14C0DBFFD0
:101AA000040E15C0DBFF030EDBCFE9FF040EDBCF16
:101AB000EAFFEF90050EE15C02E2E16AE552E16EB9
:101AC0001CD038D9DDD82FEF0EF0FE0EEA6ADB34D9
:101AD00077EF0EF0E66EE66A85EF0EF0DECFE9FFF7
:101AE000DDCFEAFF12006BC0E9FF6CC0EAFF120015
:101AF000D9CFE6FFE1CFD9FF1200E552E7CFD9FFFA
:101B0000120024510F0BE96EEA6AD890E936EA36E2
:101B1000120063C0E9FF64C0EAFF120011D9280E69
:101B2000EE6E020EED6E1200FE0EEA6ADB347EEF00
:101B30000EF0FD0EDB50E824166EFE0EDB50040D99
:101B4000F35016241200DF50040DF3CFE9FFF4CF59
:101B5000EAFF000EE926020EEA22EE6AEE6AEE6A5B
:101B6000EE6ADF2A1200DF50DCD8EA22EF6ADF508B
:101B7000D3D8EA22EF6ADF2A1200010EE66EE66A87
:101B8000E66A540EE66E0F0E6CEF0EF0EA22EE508F
:101B9000EFCFEAFFE96E1200E66E7DC0E9FF7EC07E
:101BA000EAFF7D2B000E7E23E552E750EF6EDF0645
:101BB0001200EA22EECFDEFFEDCFDDFF1200000EB5
:101BC000E66EE66AE66EE66A120024510F0B8CEFB1
:101BD0000EF024510F0B91EF0EF0152214C0DEFF12
:101BE00015C0DDFF1200160E616E0F019F0E5B6FB8
:101BF0007B0E606E1200DF50146E156A080E145CC6
:101C0000000E15581200FE0EDBCFE6FFF3EC09F0D4
:101C1000E552E5521200F7220900F5CF71F00A00F3
:101C2000F5CF72F01200010EE66EE66A000EE66E67
:101C3000E66A1200F76A7125F66E7251F722080003
:101C400012002251F66EF76AD890F636F736120077
:101C5000D950020FE96EDACFEAFFEF50120065C0EB
:101C6000E9FF66C0EAFF1200040DF3CF14F0F4CFD1
:101C700015F0000E1426020EB0DF840EA5EF0EF054
:101C80005FD8200EEE6E020EED6E120031DF020EF6
:101C9000E1261200020EE66EE66ADECFE6FFDDCF39
:101CA000E6FF050E6AEF0DF00CDF8C0EEF6E1BDF0A
:101CB000840EEF6E120025DF670EE926000E12007B
:101CC00020DF6B0EE926000E1200FFDEC6EF0DF0DE
:101CD00005DFEF50800B1200E66EB4EC14F0146ECA
:101CE000050EE15E1450120003DFE6521200FE0BF7
:101CF000EA36E96E6B0EE926000E1200FE0BEA369C
:101D0000E96E670EE926000E1200BCEC11F0146EAD
:101D1000060EE15E14501200EA6A860FE96E000EAC
:101D20001200EA6A840FE96E000E1200D7DEE85056
:101D3000EF16120094DFEE52080EEF6E2FEF0EF04A
:101D4000020EE926000EEA221200C8DEE850EF1269
:021D500012007F
:0E1D5200DACFE4FFE2CFDAFFE9CFE4FFEACF19
:101D6000E4FFF6CFE4FFF7CFE4FFF5CFE4FFF3CFD6
:101D7000E4FFF4CFE4FFFACFE4FF00EE00F0140E2E
:101D8000E80403E3EECFE4FFFBD700EE14F0080E07
:101D9000E80403E3EECFE4FFFBD7E65269EC08F07A
:101DA000E55200EE1BF0080EE80403E3E5CFEDFF7B
:101DB000FBD700EE13F0140EE80403E3E5CFEDFFCC
:101DC000FBD7E5CFFAFFE5CFF4FFE5CFF3FFE5CF93
:101DD000F5FFE5CFF7FFE5CFF6FFE5CFEAFFE5CF6B
:101DE000E9FFE5CFDAFF1100D8CFE4FFE0CFE4FF51
:101DF000E46EDACFE4FFE652E552E5CFDAFFE550D4
:101E0000E5CFE0FFE5CFD8FF100004D89BEC09F048
:101E100018D8FED70F0EC112800E7E6E030E7F6E95
:101E200002D816EF08F08B6ADF0E946E8A6A936808
:101E3000D8D90001986B996B9A6B9B6B010E9C6FC4
:101E40001200A1DB0A0EE12600019C6B9C5101E00F
:101E500034DA200E0001E76E6019E8AE02D0E734F4
:101E600002D0E750605D01E273D16450020B01E0E3
:101E70006FD100019851991102E1000E08D098C06D
:101E8000E9FF99C0EAFFEF50800B01E0010E000965
:101E900001E05ED102013651370A01E10FD1B40AE7
:101EA00001E1DAD0010A01E193D0030A48E0010A16
:101EB00001E04DD100019C6B010E02013715E8B025
:101EC0008B88E8A08B98020E3715E8407F0BE8B0AE
:101ED0008A8EE8A08A9E040E3715E840E8403F0B42
:101EE000E8B08A8CE8A08A9C5BDBE8B08A8AE8A02C
:101EF0008A9A100E3715E8380F0BE8B08A88E8A0E8
:101F00008A98200E3715E00BE838E840E8B08B845B
:101F1000E8A08B943DDB04E0E8427F0BE706FCE1A0
:101F2000E8B08B82E8A08B92800E02013715E8445E
:101F3000010BE8B08B80E8B00AD18B9008D1810EFC
:101F4000766F8250100B01E0010E1A6E8150800BEB
:101F500001E0010EE824196E8150400B01E0010EF2
:101F6000040DF3CF18F08150200B01E0010E080D95
:101F7000F3CF17F08150100B01E0010E100DF3CFDD
:101F800016F08250040B01E0010E200DF3CF15F086
:101F90008250020B01E0010E400DF3CF14F082508D
:101FA000010B800DF3501410151016101710181097
:101FB00019101A10776F00019A519B1102E1000E5F
:101FC00003D0F5DA01E0010E000901E0C0D0B2D083
:101FD000820E766F010E3715E8B09488E8A09498C9
:101FE000020E3715E8407F0BE8B0938EE8A0939E71
:101FF000040E3715E840E8403F0BE8B0938CE8A0AA
:10200000939CCEDAE8B0938AE8A0939A100E371525
:10201000E8380F0BE8B09388E8A09398200E3715A6
:10202000E00BE838E840E8B09484E8A09494B0DA93
:1020300004E0E8427F0BE706FCE1E8B09482E8A008
:102040009492800E02013715E844010BE8B09480A9
:10205000E8B07DD094907BD0000E38C2DFFF010E37
:10206000DB6A020EDB6A030EDB6AB4DA59DA02E0DD
:102070007EDAFEE1A3DA39C214F0F7D951DA02E0D0
:1020800076DAFEE19BDA3AC214F0EFD949DA02E0DF
:102090006EDAFEE193DA3BC214F0E7D9EECFE6FF49
:1020A000EECFE6FFEECFE6FFEFCFE6FF37C2E6FF6B
:1020B000A3D8146E050EE15E145049D000019A5168
:1020C0009B1102E1000E03D072DA01E0010E00095B
:1020D0003EE1060EE12642D839DAEECF19F01A6E4B
:1020E000060EE15E1A50040E14C0DBFF050E15C08B
:1020F000DBFF060E16C0DBFF070E17C0DBFF080E66
:1021000018C0DBFF090E19C0DBFF0201370E766F26
:10211000040EDBCF77F2050EDBCF78F2060EDBCFB5
:1021200079F2070EDBCF7AF2080EDBCF7BF2090ED5
:10213000DBCF7CF2400EE66E760EE66E020EE66EA9
:10214000010EE66E4CDAF3CF9AF0F4CF9BF0DAD9B9
:102150000A0EE15C02E2E16AE55210D214DA060EE0
:10216000E1269486948C948E1D0EC26EC16A3E0E3A
:10217000C06EC08EC282C2B2FED7C350DF6E010EE7
:10218000C4CFDBFF210EC26EC282C2B2FED7020EE6
:10219000C3CFDBFF030EC4CFDBFF250EC26EC282AE
:1021A000C2B2FED7040EC3CFDBFF050EC4CFDBFFE8
:1021B00011DACCD9EFCF19F00DDAED50ED5019C08E
:1021C000EDFF18C0EDFF17C0EDFF16C0EDFF15C005
:1021D000EDFF14C0EFFF060EE15C02E2E16AE5529A
:1021E000CDD1040ECA6E0D0EBD6E010EB96EB66A6B
:1021F000B76ABE6ACB681200C6D9020EE12696D92C
:1022000009E6D880B70E07540B0E0854000E095487
:10221000000E0A5419E2A0D908E6C60EEE5C2D0E97
:10222000EE58000EEE58000EEE580EE25ED90A0E81
:1022300049D9F80E186E240E196E010EE4D816BE98
:10224000176822D9060E32D087D908E61A0EEE5C3E
:10225000B70EEE58000EEE58000EEE580EE245D9BD
:102260000A0E30D9E00E186E930E196E040ECBD8FC
:1022700016BE176809D9050E19D058D909E6D880B5
:10228000400E07540D0E0854030E0954000E0A5454
:102290000EE32BD9640E16D9C00E186ED40E196E2B
:1022A000010EB1D816BE1768EFD8040ECA6E020E22
:1022B000E15C02E2E16AE55261D100019D519E11AB
:1022C00004E1100E9D6F270E9E6F9D07000E9E5B12
:1022D00064B212000001605101E11200600501E1E9
:1022E0001200020E605D01E11200040E605D01E16A
:1022F0001200100E605D04E100019D519E1112005C
:10230000200E605D03E100019D519E11120012003C
:1023100012001200120085EF13F012001E0EE66E7E
:10232000010EE66EF8EC08F0E552E55282EF12F08D
:1023300000017F0520E1000180051DE1A094E8DF98
:1023400064920001806B0001100EA16F0E0EA26F4F
:10235000A107000EA25BA151A211FAE16484080E4C
:10236000A16F070EA26FA107000EA25BA151A211DF
:10237000FAE16494A084120006D9FD0EDBCF08F0C8
:10238000FE0EDBCF09F0050E081801E1095036E01A
:10239000E868081802E17F0E09182FE0030E0818FC
:1023A00001E1095028E0020E081801E1095021E07E
:1023B000010E081801E109501AE0740E081801E135
:1023C000095013E0750E081801E109500CE0730E76
:1023D000081801E1095005E0720E08180FE10950D4
:1023E0000DD097DF0BD093DF09D092DF07D096DFB7
:1023F00005D093DF03D08FDF01D08CDF010EE552D3
:10240000E7CFD9FF12001A6E1B6A18C006F019C078
:1024100007F0086E1BC009F0FA0EDBCF0BF0FB0EC5
:10242000DBCF0CF0FC0EDBCF0DF0FD0EDBCF0EF0A2
:1024300024EC13F006C014F007C015F008C016F025
:1024400009C017F01406000E155A165A175A156AC5
:10245000166A176A14C0DEFF15C0DDFFDF50CB6EB1
:10246000FE0EDBCF16F0176A1200156A166A176A9D
:10247000B1D8EE501412EE501512EE501612EE5066
:1024800017129CD8EAEF12F016C008F017C009F036
:10249000DECF0DF0DDCF0EF058EC13F006C014F0D7
:1024A00007C015F0640E0D6E0E6A06C008F007C076
:1024B00009F0FEEC12F008C0DEFF09C0DDFFDF50BE
:1024C000BE6E12000B6E0C6A0D6A0E6A24EC13F0DD
:1024D000FA0E06C0DBFFFB0E07C0DBFFFC0E08C0D8
:1024E000DBFFFD0E09C0DBFF1200FA0EDBCF06F0AA
:1024F000FB0EDBCF07F0FC0EDBCF08F0FD0EDBCFD1
:1025000009F01200400EE66E360EE66E020EE66E22
:10251000E66A010E64D8F3CF98F0F4CF99F0120078
:1025200066D8EFCF17F0080E1F0B1200FA0EDBCFA4
:1025300007F0FB0EDBCF08F0FC0EDBCF09F0FD0E41
:10254000DBCF0AF00A34000E0A18120050D8EECF82
:1025500017F0EECF18F01200D950FA0FE96EFF0E07
:10256000DA20EA6ED890030EEB50000A1200D890E1
:102570001436153616361736E8061200E16EE552A7
:10258000E7CFD9FF1200D9CFE6FFE1CFD9FF120084
:10259000060E146E400E371514C0E7FFE752120006
:1025A000080E3715E840E840E8401F0B12009AC0BB
:1025B000E9FF9BC0EAFFEF50800B120014C0DFFF61
:1025C000010E15C0DBFF020E16C0DBFF030E17C0A5
:1025D000DBFF1200D9CFE9FFDACFEAFF1200E66E87
:1025E0001CEC09F0146E050EE15E14501200EECFE3
:0C25F00014F0EECF15F0EECF16F0120044
:0425FC00006A0EAEB5
:1026000007EF13F00D6C0E1EE86A0E22001E09AED5
:102610000FEF13F0086C091EE86A0922001ECEECC9
:1026200014F009BE1FEF13F000AE000C086C091E79
:10263000E86A0922046C051EE86A0522000C00BE47
:1026400016EF13F00188FF0C006AE86A0EAE31EF56
:1026500013F00B6C0C1E0D1E0E1E0C220D220E22F2
:10266000001E09AE3CEF13F0066C071E081E091E83
:10267000072208220922001E90EC14F009BE53EF35
:1026800013F000AE000C066C071E081E091EE86A57
:10269000072208220922026C031E041E051E0322C3
:1026A00004220522000C00BE43EF13F00188FF0C4A
:1026B00009C013F008C012F008500D02F4CF07F063
:1026C000F3CF06F009500E02F4CF09F0F3CF08F073
:1026D0000D02F3500726F4500822E86A092212502E
:1026E0000E02F3500726F4500822E86A09220EAEC3
:1026F0007EEF13F01250085E1350095A13AE000C0F
:0A2700000D50085E0E50095A000C3F
:06270A00020120511F0B2B
:10271000010801E01200245101E01200060E215DC3
:102720001EE12351230A1BE0010A0CE0030A17E112
:102730000001610514E10001F60E716F270E726F42
:10274000090E09D0000161050AE100015D0E716FFB
:10275000280E726F1C0E746F756BC00E736F0201C2
:102760002051600BE842E842E842E842E8420108B2
:1027700001E0120021510B0A26E0080A19E0090ABB
:1027800011E0080A05E00B0A23E0080A21E0120024
:1027900000019F0E716F000E726F010E746F756BEA
:1027A000C10E0FD00001800E736F23C29FF0120084
:1027B0000001A00E716F000E726F010E746F756BC9
:1027C000810E736F12000001800E736F22C2A0F0A1
:0227D0001200F5
:0E27D2001201000200000008D8043F000200BF
:1027E0000102000109022900010100C032090400B0
:1027F000000203000000092111010001221C000752
:10280000058103400001070501034000010403099D
:1028100004280343006900720063007500690074B6
:1028200000560061006C006C0065007900200049D2
:10283000006E0063002E0020002403550053004268
:1028400000200049002F004F00200042006F00616F
:10285000007200640020005600320020000600FFD5
:102860000901A1011901294015012540750895406C
:102870008100190129409100C0E4270D2811283951
:01288000282F
:0E2882001E0EF66E100EF76E000EF86E0001C0
:102890000900F550936F0900F550946F03E19367B9
:1028A00001D03DD00900F5508E6F0900F5508F6FB3
:1028B0000900F550906F09000900F550E96E090014
:1028C000F550EA6E090009000900F550916F090002
:1028D000F550926F09000900F6CF95F0F7CF96F00A
:1028E000F8CF97F08EC0F6FF8FC0F7FF90C0F8FFCB
:1028F0000001915302E1925307E00900F550EE6E9A
:102900009107F8E29207F9D795C0F6FF96C0F7FF56
:1029100097C0F8FF00019307000E945BBFD7120029
:10292000056A046A036A026A200EE76ED8900636CA
:1029300007360836093602360336043605360B509C
:10294000025C0C5003580D5004580E50055809E312
:102950000B50025E0C50035A0D50045A0E50055A8B
:08296000062AE72EE4D712005D
:08296800FE0EE3CFE9FFFF0EB4
:10297000E3CFEAFFE9CFF3FFEACFF4FFFB0EE3502A
:1029800003E1FC0EE35009E0FB0EE30602E2FC0E5D
:0C299000E306FD0EE350EE6EF1D71200DE
:04299C00056A046A5A
:1029A000100EE76ED89008360936043605360D50FD
:1029B000045C0E50055805E30D50045E0E50055A98
:0829C000082AE72EF0D71200EF
:0829C800000EF36E00EE00F0BA
:1029D000030E01D81200EA6002D0EE6AFCD7F35071
:0829E000E9601200EE6AFCD769
:0829E80011EE00F021EE00F0F9
:1029F000F86A019C41EC14F003EC08F005EC0FF0D0
:042A0000FBD71200EE
:020000040030CA
:0100000000FF
:0100010032CC
:0100020001FC
:010003001EDE
:0100050000FA
:010006008178
:0100080003F4
:01000900C036
:01000A0003F2
:01000B00E014
:01000C0003F0
:01000D0040B2
:00000001FF
